:03000000020006F5
:03005F0002000399
:0300030002009F59
:10006200758902758C00758A00D28C7E007F007CB7
:10007200007D00108D0280FB0CBC00010DC3EC94CE
:10008200FFED6480948040EB0EBE00010FC3EE943E
:100092000FEF6480948040D7C28CC28D227580009D
:0E00A2007580551200627580FF12006280F2B8
:06003500E478FFF6D8FD9F
:100013007900E94400601B7A009000B4780175A070
:1000230000E493F2A308B8000205A0D9F4DAF2754C
:02003300A0FF2C
:10003B007800E84400600A790175A000E4F309D860
:10004B00FC7800E84400600C7900900001E4F0A318
:04005B00D8FCD9FAFA
:0D0006007581071200B0E58260030200035F
:0400B0007582002233
:00000001FF
